:100000000C940038FFFFFFFFFFFFFFFFFFFFFFFF24
:10001000FFFFFFFFFFFFFFFFFFFFFFFFFFFFFFFFF0
:10002000FFFFFFFFFFFFFFFFFFFFFFFFFFFFFFFFE0
:10003000FFFFFFFFFFFFFFFFFFFFFFFFFFFFFFFFD0
:10004000FFFFFFFFFFFFFFFFFFFFFFFFFFFFFFFFC0
:10005000FFFFFFFFFFFFFFFFFFFFFFFFFFFFFFFFB0
:10006000FFFFFFFFFFFFFFFFFFFFFFFFFFFFFFFFA0
:10007000FFFFFFFFFFFFFFFFFFFFFFFFFFFFFFFF90
:10008000FFFFFFFFFFFFFFFFFFFFFFFFFFFFFFFF80
:10009000FFFFFFFFFFFFFFFFFFFFFFFFFFFFFFFF70
:1000A000FFFFFFFFFFFFFFFFFFFFFFFFFFFFFFFF60
:1000B000FFFFFFFFFFFFFFFFFFFFFFFFFFFFFFFF50
:1000C000FFFFFFFFFFFFFFFFFFFFFFFFFFFFFFFF40
:1000D000FFFFFFFFFFFFFFFFFFFFFFFFFFFFFFFF30
:1000E000FFFFFFFFFFFFFFFFFFFFFFFFFFFFFFFF20
:1000F000FFFFFFFFFFFFFFFFFFFFFFFFFFFFFFFF10
:10010000E87E00000A000600000006000600000766
:10011000427D00000E17221742010E1700178116AC
:10012000FFFFFFFFFFFFFFFFFFFFFFFFFFFFFFFFDF
:10013000FFFFFFFFFFFFFFFFFFFFFFFFFFFFFFFFCF
:10014000010006455854454E44000000006E70758D
:100150007400006F6E2070696E7320636F6E666945
:100160006775726564206173206F75747075747340
:100170000000FFFFFFFFFFFFFFFFFFFFFFFFFFFF8D
:10018000000000000000000000000000000000006F
:10019000000000000000000000000000000000005F
:1001A000000000000000000000000000000000004F
:1001B000000000000000000000000000000000003F
:1001C000000000000000000000000000000000002F
:1001D000000000000000000000000000000000001F
:1001E000000000000000000000000000000000000F
:1001F00000000000000000000000000000000000FF
:100200007E7F02312B0001960895020202312D00FB
:10021000019708950C0202322B00029608951602EF
:1002200002322D00029708952002013E2991399152
:10023000281739070DC02A0202443E00099119917E
:1002400029913991E990F990E016F10628073907CC
:10025000C1011CF011F0019708950895380202447D
:100260002B0029913991E990F99049915991240FE6
:10027000351F8E1D9F1D3A932A9308955E020244F6
:100280002D0029913991E990F99049915991421B9A
:10029000530BE80AF90A5A934A93C70108957E025C
:1002A00005414C4C4F540E94313A0C94983BA002AB
:1002B0000649414C4C4F54000E942C3A0C94983BF8
:1002C000B002012C0E942C3A0E948D380E94A33962
:1002D0000E940D010E942C3A0E9483380C94DD3854
:1002E0000E943B380E940E946201ECCFC202895BEF
:1002F000434F4D50494C455D0E94F43E0E94423AA6
:10030000EFCFEE0247434F4D50494C450E946539AF
:100310000E943C3A0E94A3390E948D380E946201DB
:100320000E940D010E94A3390E948D380E94620133
:100330000E940D010E94423A0E947F3908950403F1
:10034000074C49544552414C0E943B383B380E946F
:100350007001B8CF0E943B3822000E94CF3D0E941E
:10036000A3390E945E390E94423A0E947F390E945E
:10037000A3390E948D380E9462010E940D010E94E3
:100380004838B7010C949D39400385424547494E92
:100390000E942C3A0C948D388A0383464F520E9457
:1003A0003B387F390E947001F3CF9A03844E455841
:1003B00054000E943B3848380E9470010E94423A23
:1003C00081CFAC0385554E54494C0E943B385B3875
:1003D0000E9470010E94423A75CFC4038541474193
:1003E000494E0E943B3865380E9470010E94423A93
:1003F00069CFDC03824946000E943B385B380E948B
:1004000070010E94C8010E943B38020055CF0E9433
:100410003B3865380E9470010E94C8010E943B3839
:1004200002000C945C01F40386524550454154008F
:100430000E94F1010E94C8010E94423A0E94AA391A
:100440000C94DD382804845448454E000E94C801AD
:100450000E94423A0E94AA390C94DD384604834136
:1004600046540E949D390E9407020E94C8010C94C4
:10047000AA395E0484454C5345000E9407020E943D
:10048000AA390C9426027404855748494C450E94A9
:10049000FC010C94AA3988048641424F5254220030
:1004A0000E943B38983E0E9470010E94AA01089564
:1004B0009804822422000E943B38153D0E9470015E
:1004C0000E94AA010895B204822E22000E943B38A5
:1004D000173D0E9470010E94AA0108950E94A3394D
:1004E0000E94353E0E945B3881020E94173D072022
:1004F0007265446566200E94B4390E94A23B0E9446
:10050000E63C0C949D390E94A3390E945E390E94FA
:100510005B38AF020E946E020E94373A0E948D380B
:100520000E9462010E942C3A0E948D380E94373A44
:100530000E9483380E94A3390E945E390E94423A89
:100540000E947F390E94A3390E948D380E94620167
:100550000E940D010E944838A2020C949D390E940D
:10056000153D05206E616D650C948D3E0E94353EF3
:100570000E94543A0E945B38CD020E9494380E9437
:100580003B3880000E94C4390E945B38C9020C9439
:1005900073380E94423A0C9470010E947E3C0E9483
:1005A0005B38D4020C94A4010C948D3EC804054F12
:1005B000564552540E94373A0E948D380E94273A7D
:1005C0000C948338AE05C13B0E943B3808950E94CD
:1005D00062010E94BA3E0C94DA02C605015D0E94D7
:1005E0003B386C050E941B3A0C948338DC05013AB9
:1005F0000E94B83D0E9483020C94EF02EE05094967
:100600004D4D4544494154450E943B3880000E946D
:10061000373A0E948D380E9494380E94CC390E944B
:10062000373A0E948D380C94DD38FE05064352455A
:10063000415445000E94B83D0E9483020E94DA02A4
:100640000E943B38E6390E9470010E94313A0E94B4
:100650008D380C9462012C0608434F4E5354414E82
:1006600054000E94B83D0E9483020E94DA020E9458
:100670003B38E6390E9470010C9462015806085616
:1006800041524941424C45000E941A030E943B38A6
:1006900002000C9453017E0605504F5254420E94B2
:1006A000E6392500980605504F5254430E94E6391A
:1006B0002800A60605504F5254440E94E6392B00EC
:1006C000B4060950422E4F55545055540E943B38A1
:1006D0003F000E943B3824000E9454390895C2060E
:1006E0000850442E494E505554000E943B3800009B
:1006F0000E943B382A000E9454390895E0060750B2
:10070000554C4C2E55500E943B38FC000E943B3803
:100710002B000E9454390895FE06044249543000CB
:100720000E94E63901001A070442495431000E9430
:10073000E639020028070442495432000E94E63993
:10074000040036070442495433000E94E639080089
:1007500044070442495434000E94E639100052070D
:100760000442495435000E94E639200060070442E3
:10077000495436000E94E63940006E07044249544D
:1007800037000E94E63980007C07035345540E94DD
:10079000A3390E947F390E945E390E94CC390E94A1
:1007A00065390E94543908958A07055245534554C6
:1007B0000E94A3390E947F390E945E390E94AA39A3
:1007C0000E94823A0E94C4390E9465390E945439BD
:1007D0000895AA0705434C4541520E943B3800004A
:1007E0000E94AA390E9454390895D40704534554ED
:1007F0003F000E945E390E94C4390E943B380000CD
:100800000E94AD3A0E94823A0895EC070652455381
:1008100045543F000E945E390E94C4390E943B3813
:1008200000000E94AD3A08950C08035258440E94FB
:1008300090030E943B382B000E943B382A000E9404
:100840003B38290008952A08035458440E9497030E
:100850000E943B382B000E943B382A000E943B3804
:100860002900089548080450494E32000E949E0312
:100870000E943B382B000E943B382A000E943B38E4
:100880002900089566080450494E33000E94A503CC
:100890000E943B382B000E943B382A000E943B38C4
:1008A0002900089586080450494E34000E94AC0384
:1008B0000E943B382B000E943B382A000E943B38A4
:1008C00029000895A6080450494E35000E94B3033C
:1008D0000E943B382B000E943B382A000E943B3884
:1008E00029000895C6080450494E36000E94BA03F4
:1008F0000E943B382B000E943B382A000E943B3864
:1009000029000895E6080450494E37000E94C103AB
:100910000E943B382B000E943B382A000E943B3843
:100920002900089506090450494E38000E9490039A
:100930000E943B3825000E943B3824000E943B382F
:100940002300089526090450494E39000E94970358
:100950000E943B3825000E943B3824000E943B380F
:100960002300089546090550494E31300E949E03E8
:100970000E943B3825000E943B3824000E943B38EF
:100980002300089566090550494E31310E94A503A0
:100990000E943B3825000E943B3824000E943B38CF
:1009A0002300089586090550494E31320E94AC0358
:1009B0000E943B3825000E943B3824000E943B38AF
:1009C00023000895A6090550494E31330E94B30310
:1009D0000E943B3825000E943B3824000E943B388F
:1009E00023000895C609055854414C300E94BA03AB
:1009F0000E943B3825000E943B3824000E943B386F
:100A000023000895E609055854414C310E94C10362
:100A10000E943B3825000E943B3824000E943B384E
:100A200023000895060A0441494E30000E949003B5
:100A30000E943B3828000E943B3827000E943B3828
:100A400026000895260A0441494E31000E9497036A
:100A50000E943B3828000E943B3827000E943B3808
:100A600026000895460A0441494E32000E949E0322
:100A70000E943B3828000E943B3827000E943B38E8
:100A800026000895660A0441494E33000E94A503DA
:100A90000E943B3828000E943B3827000E943B38C8
:100AA00026000895860A0441494E34000E94AC0392
:100AB0000E943B3828000E943B3827000E943B38A8
:100AC00026000895A60A0441494E35000E94B3034A
:100AD0000E943B3828000E943B3827000E943B3888
:100AE00026000895C60A035253540E94BA030E9476
:100AF0003B3828000E943B3827000E943B382600E4
:100B00000895E60A0448494748000E949D390E941A
:100B10009D390E94C7030895040B034C4F570E9450
:100B20009D390E949D390E94D80308951A0B0548EB
:100B30004947483F0E94AA390E949D390E94AA391C
:100B40000E949D390E94F90308952E0B044C4F57C3
:100B50003F000E94AA390E949D390E94AA390E9432
:100B60009D390E940A0408954C0B064F5554505568
:100B700054000E949D390E94AA390E949D390E940A
:100B8000C70308956A0B05494E5055540E949D397C
:100B90000E94AA390E949D390E94D8030895860BAD
:100BA00006544F47474C45000E94AA390E949D3980
:100BB0000E94AA390E949D390E94C7030895A00B84
:100BC0000650554C4C5550000E949D390E949D394D
:100BD0000E94C7030895C00B08464C4F4154494E2C
:100BE00047000E949D390E949D390E94D8030895B4
:100BF000D80B064C45442E4F4E000E94E6040E943E
:100C000085050895F20B074C45442E4F46460E9439
:100C1000E6040E948F050895060C024D53000E94C1
:100C20007F390E9465381C060E943B38CB010E9428
:100C30007F390E94483819060E94483814060895E2
:100C40001A0C09424C494E4B2E4C45440E94E60476
:100C50000E9485050E943B38E8030E940F060E940F
:100C6000E6040E948F050E943B38E8030E940F06AD
:100C70000E9411380E945B3826060E949D39089513
:100C8000420C075345434F4E44530E943B38E80300
:100C90000E94563B0E940F060895820C0642494E60
:100CA000415259000E943B3802000E94F9390E94CB
:100CB000833808959C0C072E42494E4152590E9498
:100CC000D13C0E94F9390E948D380E947F390E94E0
:100CD00052060E941B3C0E942B3C0E942B3C0E940F
:100CE0002B3C0E942B3C0E942B3C0E942B3C0E94E0
:100CF0002B3C0E942B3C0E94463C0E94E63C0E94FA
:100D0000D13C0E9465390E94F9390E9483380895C8
:100D1000B60C022D3E000E945E390E945F060895C7
:100D2000120D02303D000E943B3800000E94AD3A97
:100D30000895220D03303C3E0E943B3800000E9483
:100D4000AD3A0E94823A0895340D023C3E000E9462
:100D5000AD3A0E94823A08954A0D04545255450016
:100D60000E943B38FFFF08955A0D0546414C5345FC
:100D70000E943B38000008956A0D034D454D0E94C6
:100D80003B38FF6F0E942C3A0E948D380E949C3A9B
:100D90000E94F9390E948D380E947F390E94603C80
:100DA0000E943A3D0E9465390E94F9390E948338B9
:100DB0000E94173D1120466C61736820627974654A
:100DC0007320667265650E94FD3C08957A0D0444A7
:100DD0004F4553000E9465390E94373A0E948D3872
:100DE0000E94E23D0E940D010E94DD380895CE0D63
:100DF0000556414C55450E9444030E94313A0E94D9
:100E00008D380E9412010E9483380E94EA060E94D7
:100E100065390E943C3A0E9494380E948D380895AA
:100E2000F00D045B544F5D000E94F43E0E943B387D
:100E300004000E94783A0E9494380E9483380895F2
:100E4000220E023D3A000E9465390E94A3390E9499
:100E500003010E943C3A0E9494380E940D010E94B6
:100E60003C3A0E9494380E94AA390E940D010E94C7
:100E70007F390E9483380895420E02544F000E9429
:100E800065390E94A3390E9403010E943C3A0E94E6
:100E900094380E940D010E943C3A0E9494380E94AE
:100EA000AA390E940D010E947F390E94833808955B
:100EB0007A0E02432C000E943B3801000E9453012D
:100EC0000E94B73B0E9408010E9454390895B20E57
:100ED0000442454550000E943B3807000E942538D7
:100EE0000895D00E06455854454E44000E943B38A4
:100EF00000010E949F3F0E943B3800010E943B3846
:100F000000010E94AA3F0E943B3880010E949F3F3F
:100F10000E943B3880010E943B3880010E94AA3F1A
:100F20000895E40E045748454E000E94823A0E94FC
:100F30005B38A3070E9465390E943B3804000E9479
:100F40009C3A0E947F390895240F044D414E590068
:100F50000E9411380E945B38B2070E949D390E949E
:100F60006538B6070E94093A0E94ED0308954A0FBA
:100F7000062354494D4553000E94E6394001700F45
:100F80000554494D45530E943B3801000E94BC075F
:100F90000E94983B0E94BC070E948D380E94C53A6F
:100FA0000E945B38DD070E943B3801000E94BC07AD
:100FB0000E9483380E946538E1070E94093A0E9426
:100FC000ED030895800F072E50554C4C55500E944C
:100FD000FD3C0E94FD3C0E94173D09506F72744217
:100FE000202D3E200E944F030E948B060E94FD3C54
:100FF0000E94173D09506F727443202D3E200E94BD
:1010000056030E948B060E94FD3C0E94173D09502A
:101010006F727444202D3E200E945D030E948B0657
:101020000E94FD3C0E94173D2E31203D2070756CC2
:101030006C757020616374697665206F6E207069CD
:101040006E7320636F6E6669677572656420617385
:1010500020696E70757473000E94FD3C0E94173DFC
:101060002D31203D206F7574707574206869676834
:10107000206F6E2070696E7320636F6E666967758E
:10108000726564206173206F7574707574730E944B
:10109000FD3C0E94FD3C0895C60F052E50494E535D
:1010A0000E94FD3C0E94FD3C0E9490030E943B3840
:1010B0002A000E94F9030E945B386B080E94173DCA
:1010C0000F50696E3020202D3E204F75747075745E
:1010D0000E94653875080E94173D0E50696E3020D9
:1010E000202D3E20496E707574000E94173D04202B
:1010F000525844000E94FD3C0E9497030E943B38D6
:101100002A000E94F9030E945B3893080E94173D51
:101110000F50696E3120202D3E204F75747075740C
:101120000E9465389D080E94173D0E50696E31205F
:10113000202D3E20496E707574000E94173D0420DA
:10114000545844000E94FD3C0E949E030E943B387C
:101150002A000E94F9030E945B38BB080E94173DD9
:101160000F50696E3220202D3E204F7574707574BB
:101170000E946538C5080E94173D0E50696E3220E6
:10118000202D3E20496E707574000E94FD3C0E9427
:10119000A5030E943B382A000E94F9030E945B3895
:1011A000DE080E94173D0F50696E3320202D3E202F
:1011B0004F75747075740E946538E8080E94173D79
:1011C0000E50696E3320202D3E20496E70757400DC
:1011D0000E94FD3C0E94AC030E943B382A000E9402
:1011E000F9030E945B3801090E94173D0F50696E98
:1011F0003420202D3E204F75747075740E94653820
:101200000B090E94173D0E50696E3420202D3E20A0
:10121000496E707574000E94FD3C0E94B3030E94E9
:101220003B382A000E94F9030E945B3824090E947F
:10123000173D0F50696E3520202D3E204F7574707C
:1012400075740E9465382E090E94173D0E50696E14
:101250003520202D3E20496E707574000E94FD3CA3
:101260000E94BA030E943B382A000E94F9030E94A0
:101270005B3847090E94173D0F50696E3620202DBC
:101280003E204F75747075740E94653851090E9434
:10129000173D0E50696E3620202D3E20496E707528
:1012A00074000E94FD3C0E94C1030E943B382A004A
:1012B0000E94F9030E945B386A090E94173D0F5093
:1012C000696E3720202D3E204F75747075740E9412
:1012D000653874090E94173D0E50696E3720202D25
:1012E0003E20496E707574000E94FD3C0E94900380
:1012F0000E943B3824000E94F9030E945B388D094C
:101300000E94173D0F50696E3820202D3E204F75EA
:10131000747075740E94653897090E94173D0E50CD
:10132000696E3820202D3E20496E707574000E9431
:10133000FD3C0E9497030E943B3824000E94F90361
:101340000E945B38B0090E94173D0F50696E39202A
:10135000202D3E204F75747075740E946538BA094F
:101360000E94173D0E50696E3920202D3E20496E97
:10137000707574000E94FD3C0E949E030E943B38E1
:1013800024000E94F9030E945B38D3090E94173D94
:101390000F50696E3130202D3E204F75747075747A
:1013A0000E946538DD090E94173D0E50696E31308C
:1013B000202D3E20496E707574000E94FD3C0E94F5
:1013C000A5030E943B3824000E94F9030E945B3869
:1013D000F6090E94173D0F50696E3131202D3E20D5
:1013E0004F75747075740E946538000A0E94173D2D
:1013F0000E50696E3131202D3E20496E707574009B
:101400000E94FD3C0E94AC030E943B3824000E94D5
:10141000F9030E945B38190A0E94173D0F50696E4C
:101420003132202D3E204F75747075740E946538DE
:10143000230A0E94173D0E50696E3132202D3E2046
:10144000496E707574000E94FD3C0E94B3030E94B7
:101450003B3824000E94F9030E945B383C0A0E943A
:10146000173D0F50696E3133202D3E204F7574703B
:1014700075740E946538460A0E94173D0E50696EC9
:101480003133202D3E20496E707574000E94FD3C62
:101490000E94BA030E943B3824000E94F9030E9474
:1014A0005B385F0A0E94173D0F5874616C30202D25
:1014B0003E204F75747075740E946538690A0E94E9
:1014C000173D0E5874616C30202D3E20496E7075AA
:1014D00074000E94FD3C0E94C1030E943B3824001E
:1014E0000E94F9030E945B38820A0E94173D0F5840
:1014F00074616C31202D3E204F75747075740E949C
:1015000065388C0A0E94173D0E5874616C31202D8D
:101510003E20496E707574000E94FD3C0E9490034D
:101520000E943B3827000E94F9030E945B38A50AFD
:101530000E94173D0F41696E3020202D3E204F75CF
:10154000747075740E946538AF0A0E94173D0E4191
:10155000696E3020202D3E20496E707574000E9407
:10156000FD3C0E9497030E943B3827000E94F9032C
:101570000E945B38C80A0E94173D0F41696E3120F6
:10158000202D3E204F75747075740E946538D20A04
:101590000E94173D0E41696E3120202D3E20496E7C
:1015A000707574000E94FD3C0E949E030E943B38AF
:1015B00027000E94F9030E945B38EB0A0E94173D46
:1015C0000F41696E3220202D3E204F757470757466
:1015D0000E946538F50A0E94173D0E41696E32205F
:1015E000202D3E20496E707574000E94FD3C0E94C3
:1015F000A5030E943B3827000E94F9030E945B3834
:101600000E0B0E94173D0F41696E3320202D3E20A6
:101610004F75747075740E946538180B0E94173DE1
:101620000E41696E3320202D3E20496E7075740086
:101630000E94FD3C0E94AC030E943B3827000E94A0
:10164000F9030E945B38310B0E94173D0F41696E10
:101650003420202D3E204F75747075740E946538BB
:101660003B0B0E94173D0E41696E3420202D3E2019
:10167000496E707574000E94FD3C0E94B3030E9485
:101680003B3827000E94F9030E945B38540B0E94EC
:10169000173D0F41696E3520202D3E204F75747027
:1016A00075740E9465385E0B0E94173D0E41696E8D
:1016B0003520202D3E20496E707574000E94FD3C3F
:1016C0000E94BA030E943B3827000E94F9030E943F
:1016D0005B38770B0E94173D0F5265736574202DA0
:1016E0003E204F75747075740E946538810B0E949E
:1016F000173D0E5265736574202D3E20496E70753E
:1017000074000E94FD3C0E94FD3C08959A1004491B
:101710004E4954000E9466030E9475030E94830391
:1017200008950E170552494E473F0E948A0B0E94AA
:10173000FD3C0E9436040E94A9050E945B38AE0B56
:101740000E94173D0452696E67000E94FD3C0E9492
:1017500036040E949A050E945B38A70B0E9411383C
:101760000E945B38990B0E949D39089524170654F6
:101770004343523141000E94E63980006E170654FF
:101780004343523142000E94E63981007E170654DD
:10179000434E543148000E94E63985008E170654A6
:1017A000434E54314C000E94E63984009E17095381
:1017B000544152542E434C4B0E94BB0B0E94ED03EC
:1017C0000E94C30B0E94ED030E9490030E94C30B72
:1017D0000E94C7030E9497030E94C30B0E94D80374
:1017E0000E949E030E94C30B0E94C7030895AE1778
:1017F0000853544F502E434C4B000E94BB0B0E9489
:10180000ED030E94C30B0E94ED030E9490030E940F
:10181000C30B0E94D8030E9497030E94C30B0E942F
:10182000D8030E949E030E94C30B0E94D803089510
:10183000F0170B434C4541522E434F554E540E94D6
:101840003B3800000E94D30B0E9483380895321861
:1018500006434F554E543F000E94D30B0E948D38D3
:10186000089550180544454C41590E947F390E9403
:101870006538420C0E943B3871000E947F390E94FB
:1018800048383F0C0E9448383A0C089564180948BB
:101890004947482E544F4E450E94DC0B0E941F0CB6
:1018A0000E94A6040E9485050E943B3801000E9408
:1018B000350C0E94A6040E948F050E943B3801004F
:1018C0000E94350C0E942C0C0E943B3810270E946D
:1018D00016010E945B38500C08958E18084C4F5723
:1018E0002E544F4E45000E94DC0B0E941F0C0E949C
:1018F000A6040E9485050E943B3803000E94350C17
:101900000E94A6040E948F050E943B3803000E949B
:10191000350C0E942C0C0E943B3810270E941601A7
:101920000E945B38770C0895DC18074F4E2E544FF9
:101930004E450E94730C0E944C0C08952A19084FC2
:1019400046462E544F4E45000E944C0C0E94730C8C
:1019500008953E19084F46462E484F4F4B000E94AF
:1019600096040E94850508955419074F4E2E484F3E
:101970004F4B0E9496040E948F0508956A19084FE4
:101980004E452E52494E47000E943B3815000E949A
:101990007F390E9436040E94A9050E945B38D80C4A
:1019A0000E9465390E949D390E94B0060E947E38CF
:1019B0000E943B38F4010E940F060E944838C90C6F
:1019C0000E94B80608957E19084F4E452E434F4495
:1019D00045000E94C40C0E945B38150D0E94B6049D
:1019E0000E94D4050E943B38D0070E940F060E9437
:1019F000AF0C0E943B38B80B0E940F060E949E035A
:101A00000E944F030E94F9030E945B380C0D0E9454
:101A1000990C0E9465380E0D0E94A40C0E943B3860
:101A2000B80B0E940F060E94B90C0895C819044D06
:101A300041494E000E948A0B0E9436040E94A9056B
:101A40000E945B381C0D0E943B38581B0E940F06F9
:101A50000E9436040E949A050E945B38310D0E9454
:101A6000E90C0E9436040E949A050E945B38310DF1
:101A70000E943B3888130E940F060E94173D012ADE
:101A80000E94FD3C0E9436040E949A050E945B3829
:101A9000310D0E94FD3C0E94173D03454E440E94BB
:101AA000FD3C0E9411380E945B381C0D0E949D393C
:101AB00008952E1A0454455354000E94AF0C0E94FE
:101AC0003B38E8030E940F060E94990C0E943B38A5
:101AD000E8030E940F060E94A40C0E943B38E80312
:101AE0000E940F060E94B90C08950F060E94B90CBF
:101AF00008950E94D20B0E94E80B0E943B3805001B
:101B0000BD020E943B3820030E94E63A0E945B38E7
:101B10008B0D0E94930C0E94490C0E943B382103BC
:101B20000E943B3866030E94E63A0E945B389A0D99
:101B30000E94B00C0E94490C0E943B3830020E9467
:101B40003B3867020E94E63A0E945B38A90D0E946A
:101B5000240D0E94490C0E943B38A2010E943B3890
:101B600031020E94E63A0E945B38B80D0E94CD0C0B
:101B70000E94490C0E943B3834010E943B38A1016D
:101B80000E94E63A0E945B38C70D0E94EA0C0E9450
:101B9000490C0E943B38C8000E943B3833010E9428
:101BA000E63A0E945B38D60D0E94070D0E9411385C
:101BB0000E945B386D0D0E949D390895841A0D4274
:101BC0005554544F4E2E544F47474C450E943604AF
:101BD0000E94A9050E943B380A000E940F060E943D
:101BE00036040E94A9050E94B4390E94AD3A0E94B1
:101BF000823A0E945B38010E0E949D390E9465382E
:101C0000E60D0E945B380F0E0E94E6040E94D40588
:101C10000E9436040E949A050E945B38080E0E94BA
:101C200011380E945B38E60D0E949D390895E63C0C
:101C30000E94D13C0E94FD3C0895B41B043F4144E6
:101C400043000E94BA030E94960B0E94C7030E94A1
:101C5000BA030E94960B0E940A040E945B38270E6A
:101C60000E943B3878000E948D3808953C1C0C433C
:101C7000414C494252415445414443000E94970D12
:101C80000E943B3820930E943B3810000E94210E96
:101C90000E94F13A0E94AA390E949D390E942307AE
:101CA0000E94D60D08956E1C05554E43414C0E946E
:101CB0003B3888130E9423070E94D60D0895A81C64
:101CC00008544553542E414443000E94210E0E9463
:101CD0003A3D0E94FD3C0E9411380E945B38650E1F
:101CE0000E949D390895C01C04304C4544000E9458
:101CF00096040E948F050E94A6040E948F050E94F0
:101D0000B6040E948F050E94C6040E948F050895A4
:101D1000E81C04314C4544000E9496040E9485054D
:101D20000E94A6040E948F050E94B6040E948F059F
:101D30000E94C6040E948F050895121D04324C456E
:101D400044000E9496040E9485050E94A6040E94F9
:101D500085050E94B6040E948F050E94C6040E9459
:101D60008F0508953C1D04334C4544000E949604A1
:101D70000E9485050E94A6040E9485050E94B60463
:101D80000E9485050E94C6040E948F050895661D65
:101D900004344C4544000E9496040E9485050E942C
:101DA000A6040E9485050E94B6040E9485050E9433
:101DB000C6040E9485050895901D034653520E9453
:101DC0008A0B0E94D70B0E94210E0E943B385802BA
:101DD0000E9416010E945B38EF0E0E94770E0E944F
:101DE000210E0E943B38C2010E943B3858020E94DB
:101DF000E63A0E945B38FE0E0E948C0E0E94210E75
:101E00000E943B382C010E943B38C1010E94E63AF7
:101E10000E945B380D0F0E94A10E0E94210E0E94AD
:101E20003B3896000E943B382B010E94E63A0E9404
:101E30005B381C0F0E94B60E0E94210E0E943B3898
:101E400000000E943B3895000E94E63A0E945B38F1
:101E50002B0F0E94CB0E0E9411380E945B38E30EBC
:101E60000E949D390895FFFFFFFFFFFFFFFFFFFF67
:101E7000FFFFFFFFFFFFFFFFFFFFFFFFFFFFFFFF72
:101E8000FFFFFFFFFFFFFFFFFFFFFFFFFFFFFFFF62
:101E9000FFFFFFFFFFFFFFFFFFFFFFFFFFFFFFFF52
:101EA000FFFFFFFFFFFFFFFFFFFFFFFFFFFFFFFF42
:10700000A4B6BB242224332424BEA0EFADBFB7E036
:10701000BEBFC0EFD6E00C94883F0000043F4B4554
:1070200059009A938A9388279927C101A091C0009B
:10703000A7FF08958091C6009A938A938FEF9FEFE0
:1070400008951C7004454D495400A091C000A5FF4F
:10705000FCCF8093C600899199910895A3E3A093F2
:10706000C400AA27A093C500A8E1A093C100A6E090
:10707000A093C20008959A938A93FF91EF91EE0F27
:10708000FF1F85919591F795E795EF93FF930895ED
:10709000FF91EF91BF91AF91119724F43196EF9347
:1070A000FF930895AF93BF93EE0FFF1FA591B59186
:1070B000AF93BF930895FF91EF91892B8991999197
:1070C00031F03196EF93FF930895FF91EF91EE0F1A
:1070D000FF1FA591B591AF93BF93089544700745E5
:1070E000584543555445959587958F939F9389911E
:1070F00099910895DE70044558495400BF91AF91AD
:107100000895F6700121FC01899199919183808302
:1071100089919991089504710140FC0181919191A7
:107120000895187102494000A6DF1C0135D0C3DF65
:10713000A238A1DF1E0130D0BEDFA538FC01859149
:107140009591089598DF1C0102C095DF1E012BD098
:10715000E4CF2471034943408EDF1C011DD0ABDF17
:10716000BA3889DF1E0118D0A6DFBD38FC01992787
:107170008491089580DF1C0102C07DDF1E0113D0C1
:107180009DC079DF010000D196DFC93874DF800827
:10719000089571DF00080895C0DFE6D005D16BDFE8
:1071A000807FF2D00895B9DFECDFD4D064DF7F00B8
:1071B000EBD0FAC05471024921005DDF1C01ECDF05
:1071C0007ADFF33858DF1E01E7DF75DFF23853DF6F
:1071D0001E01A3DF50DF0080D7D06DDFF03804D070
:1071E00010D019D027D032C046DF1E0196DFABD0B9
:1071F00042DF807FC9D0A7D0A2D6ACD0C2DFAAD050
:10720000A9C639DF1E0189DFBCDFAED034DF807F45
:10721000BBD0A0D0B7C697D02EDF807FB5D02BDFF4
:107220001E0198D0A1D079DF26DF0100ADD0B4D007
:1072300091D069CF20DF1E0170DF1DDF1C016DDFE3
:107240001ADF1E0160DF17DF1C015DCF14DF7E0037
:107250009BD011DF1C0161DF94DF9ED054DF0BDF78
:107260001C0171D05ADF07DF008096D073D04BCF5E
:10727000B67105464C55534803D0DCDF01D0DACF58
:10728000FADE1E014ADF5FD0F6DE00807DD013DF1C
:107290005039F1DEFF7F78D0EEDE1E0134DFA4CF5F
:1072A0004CC0727202432100FC0189919991808344
:1072B000899199910895A47202434000FC01992795
:1072C00080810895B87242523E009A938A93BF918A
:1072D000AF919F918F91AF93BF930895C672025261
:1072E00040009A938A93BF91AF919F918F918F9312
:1072F0009F93AF93BF930895DE72423E5200BF91B9
:10730000AF918F939F93AF93BF9389919991089574
:107310009A938A93CE010895EC01899199910895E9
:10732000FA720845455354524F424500FA9AF99A69
:10733000089522730444524F500089919991089501
:107340003473034455509A938A93089542730453B7
:1073500057415000DC0189919991BA93AA930895FD
:107360004E73044F564552009A938A938A819B81AB
:107370000895627302303C009923C1010CF4019717
:107380000895747303414E44A991B9918A239B23B4
:1073900008958473024F5200A991B9918A2B9B2BB7
:1073A0000895947303584F52A991B9918A279B2746
:1073B0000895A47303554D2BA991B9918A0F9B1F72
:1073C0009A938A9399278827881F08959A938A9376
:1073D000FF91EF91EE0FFF1F859195910895B47382
:1073E0000527424F4F54F2DF0001E073044241533E
:1073F0004500ECDF0401EC7303544D50E7DF060158
:10740000F873045350414E00E1DF08010274033E5B
:10741000494EDCDF0A010E74042354494200D6DFD2
:107420000C011874042754494200D0DF0E01247463
:1074300005274556414CCADF1001307403484C44BF
:10744000C5DF12013C7407434F4E54455854BEDF0C
:107450001401467402435000B9DF1601547402440B
:107460005000B4DF18015E74044C41535400AEDF89
:107470001A01687402322A00880F991F08957474E3
:1074800002322F0095958795089501968E7F089575
:10749000807402424C009A938A9380E2992708955F
:1074A0009274043F44555000082F092B11F09A9311
:1074B0008A930895A27403524F548C0129913991F3
:1074C000899199913A932A931A930A930895B674DD
:1074D000053244524F50899199918991999108951B
:1074E000D0740432445550003FDF3ECFE274012B8C
:1074F00009911991800F911F0895EE7406494E5617
:1075000045525400809590950895FC74064E454769
:1075100041544500F7DF019608950C7507444E4528
:1075200047415445EFDFEBDEEDDFA5DD010044DF31
:10753000CCDEDECF1C75012D09911991081B190BAA
:10754000C8010895367503414253FDDE15DFB3DDF2
:10755000AA3AE0CF08954675013D26DFACDDB33A87
:107560008ADD0000089587DDFFFF089558750255F4
:107570003C00BADF19DF00DF9EDDC13AEBDEDDDE65
:10758000FBCEDADFF9CE6E75013CAEDF0DDFF4DE47
:1075900092DDCC3AD2DEF0CECFDFEECE8875034D51
:1075A0004158A2DFF2DF87DDD63AD4DEC6CE9E7523
:1075B000034D494E99DFCEDEE8DF7DDDE03ACADEDD
:1075C000BCCEB0750657495448494E00CDDEB4DFF5
:1075D00096DEB2DF7ADECDCFC47506554D2F4D4F06
:1075E00044007C01299139910991199140E1552775
:1075F000000F111F221F331F551F2E153F05520567
:1076000018F003952E193F094A9589F73A932A9362
:10761000C8010895DA75054D2F4D4F4494DEACDE58
:1076200092DE6DDE48DD183B75DF69DE7BDF4DDE07
:1076300066DE89DEA1DE3FDD1F3B53DE59DF45DE1E
:10764000D0DF43DE38DD273B85DE64DF83DE08954F
:107650001676042F4D4F440087DE8EDE7BDEDECFB4
:107660005276034D4F44F8DF68CE6276012FF4DF87
:1076700071DE63CE6C7603554D2A8C018991999108
:10768000809FF00122273327909FF00D211D331D8D
:10769000819FF00D211D331D919F200D311DCF01C4
:1076A0009A938A93C90108957676012A04D045CE2B
:1076B000AA76024D2A0018DF77DE5EDE20DE45DF87
:1076C00049DE43DFDADF01DEF6DC673B2BDF0895BE
:1076D000B276052A2F4D4F4412DEEDDFF6DD9ECF48
:1076E000D276022A2F00F8DF35DE27CE2CDED3DE5D
:1076F000C2DC7F006BDFDFDC7E3B08951EDEBBDC7F
:107700005F000895E27605444550544801DEB3DC3D
:10771000EE0620DE11DFB6CE0677045049434B005B
:107720000196AADEF5DDE4DEF8CC1A77022B210003
:1077300011DE1ADEF2DCDCDE0DDEE5CC2C77054353
:107740004F554E54FC010191CF019A938A93802F9B
:10775000992708953E770649434F554E5400F3DD6F
:107760000196F8DDF9CC567704484552450079DE9C
:10777000D4CC687703504144FADF7DDC4000B8CEBA
:107780007477035449424BDE0296C7CC8277084097
:107790004558454355544500C0DC86DE8CDCD13B62
:1077A000A2DC08958E7705434D4F5645A8DD06C0EF
:1077B000A6DDC8DF96DD78DD88DD019669DCD83B83
:1077C0008ACEC1DD58DC610056DC7B00FFDE73DC55
:1077D000EC3B51DC5F00D8DD089591DD07C08FDD03
:1077E000B1DFEFDF7EDD60DD70DD019651DCEF3B68
:1077F00072CEA6770446494C4C00ACDD80DDAADD94
:1078000003C072DE51DD019643DC013C64CE33DC03
:107810000900AADDBADE2FDC0700B6DD69DE2BDC4D
:10782000300066CE28DC000095DDDBDE93DDEFCF97
:10783000F477023C2300A0DF03DE65CC32780448F5
:107840004F4C4400FDDD69DC01977DDDF9DD5BDC3B
:107850002BCD3E780123CDDD60DCE4DFF3CF54781F
:1078600002235300F8DF6FDD26DC373CFBCF0895A1
:107870006078045349474E007FDD1DDC423CFBDB52
:107880002D00E0DF0895727802233E0056DDD8DD3A
:1078900044DC72DF69DD50CE56DD31DD56DECBDFF4
:1078A000E1DF13DDE9DFF2CF887803484558E3DBF9
:1078B00010009FDD28CCAA7807444543494D414C30
:1078C000DADB0A0096DD1FCC1ADDD5DB300034DEB2
:1078D000D2DB090049DD59DEEEDB763CCCDB07006C
:1078E0002BDE31DDC8DB0A0050DE56DD2CDDEDDCA1
:1078F00040CEB878074E554D4245523F7ADD0DDCFB
:10790000FEDCB9DB000030DD1DDF2EDDD7DCB3DBB4
:10791000240023DED0DB913CCADF1CDD01961ADD9A
:10792000019722DDCBDCA7DB2D0017DEE8DC12DDC2
:10793000D8DC02DE0FDDD5DCDBDDB6DDBCDBC13C37
:107940000197DDDC00DDDBDCB9DC53DDE6DBBCDF31
:10795000B2DBBA3CFFDC4DDDE0DBA8DEC9DDB5DC27
:10796000019696DBA23CE9DCBCDCA5DBB83CD2DDB1
:10797000F1DC06C0AADCA9DCAEDDADDD7CDB0000FD
:10798000E2DCA3DCA8DDA1DC34DDBDCBF478034B65
:10799000455947DB90DBC93C08958E79055350412A
:1079A000434579DD52CBD6DCAADC02C0CCDC4DDB12
:1079B0006FDBD63CC2CC9C79065350414345530003
:1079C0006ADDF1CFB87904545950450098DC03C002
:1079D000B9DE8CDE3ADB5CDBE83CAFCCC67905492E
:1079E000545950458CDC03C0BADE80DE2EDB50DB00
:1079F000F43CA3CCDE79024352003DDB0D0025DBD5
:107A00003ADB0A0022CB61DC60DC9DDC9CDCFC0103
:107A1000EE0FFF1F85919591992734DD69DD019661
:107A20006EDC98DC6CDC28DD0895EDDF0895EBDF7B
:107A300096DED8CFF679022E520061DC2DDF45DCD0
:107A400093DC7ADDBDDFC2CF367A03552E5257DC88
:107A5000F2DE08DF1BDF39DC87DC6EDDB1DFB6CF9D
:107A60004A7A02552E00E7DEFDDE10DF9ADFAECF48
:107A7000627A012EBEDC51DBFEDA0A0095DC1BDBEC
:107A8000423DF1CF09DF8DDFA1CF727A013F45DBA7
:107A9000F1CFB4DC38DB68DC32DC55DC0CDB8B3D51
:107AA0000197ACDC0BDCF7DC58DD05DB6A3D27DC3D
:107AB000F2DC5ADC03DC40DD5FDC24DDFCDA693D0E
:107AC0000196E6DA583D01DC38DCD5DA00003BDC13
:107AD0000895FBDB49DC3EDC12DC90DCEFDB44DCB0
:107AE000EDDB2ADD8BDCEADBD6DC37DDE4DA793D61
:107AF00043DCE1DA813D0196CBDA6D3D24DCFFDB2E
:107B000005C0E3DB1ADC1FDC0196F9DB2DDC14DD9C
:107B1000DCDBDBDB11CD28DCD8DB0ECDF0DB33DEAC
:107B200078DCFBDAE5DC7BDCF8DA73DCF6DA04DD42
:107B3000CCDBAFDF6EDCFCCD8C7A822E28009BDAAA
:107B40002900ECDF43CF3A7B812895DA2900E6DF74
:107B5000C2CC487B815C5C008EDA0D00DFDFBBCCE1
:107B6000547B04434841520096DCD8DFE6DBA6CBC9
:107B700092DCD4DF80DA1F001DDDF9DDB5DC94DB9B
:107B8000B3DCB6DC019677DA0000E4DB8DDB01962E
:107B9000E1DB23DEECCD627B04574F524400BEDFB5
:107BA000E6DDA2DC81DBA0DCA3DC019664DA000068
:107BB000D1DB7ADB0196CEDBF9DDD9CD987B054EA2
:107BC000414D453ECCDD57DA1F00DEDB91DC5DCC5C
:107BD000BE7B0553414D453F55DC91DB10C0C4DBF6
:107BE00080DB4ADC85DC99DABFDB7BDB45DC80DCD3
:107BF0009BDAA2DC59DC5FDAFF3D67DB9ECB48DA1B
:107C0000EF3D39DA00000895A5DB9DDB57DBF6DB9D
:107C10007ADA99DB82DA73DB02969CDB94DB4BDA4F
:107C2000233E91DB81DA27DA3FFFAEDB5ADBBCDB98
:107C300042DA1E3E02961FDAFFFF04C00296DEDB28
:107C40006CDACADF05C041DB78DB84DB029782CBCC
:107C500032DA2D3E049768DAE1CF37DB6EDB7ADB70
:107C60006CDB029770DBAEDF75CBF1DB56DACCCF85
:107C700046DB7ADB2ADB6EDB77DB96DB1CDA493E00
:107C8000FAD90800E2D9019706DCDFD9F4D9080057
:107C9000DCD9089558DBD9D967DB06DB0196089556
:107CA00052DB0D9708DA5A3E089705DA593EF3DBA6
:107CB000F1CFDECF42DB4EDB40DB45CB55DB18DCC2
:107CC00053DB12DC71DBF7D9723E63DE3CDBE3DBB6
:107CD00033DCD1D95F004DDCEED9703EDBDF01C073
:107CE000DFDFEFCF2ADB40DB27CCD27B06455850C5
:107CF00045435400E3DF88DB06DA1FCBEC7C0551FB
:107D00005545525940DDB7D95000D8DF88DBFBD943
:107D100014DBB1D900007DDBF6C943DE13DD56DE8E
:107D2000AAD93F0092D969DEA7DAC0EFD6E04EC0EB
:107D3000C2D99F3E68DE13DD55DEF5DF47C063DE46
:107D4000FCCA93DFB1DBB7D9B33EEED994D940007A
:107D50001BDBEEDF0D20636F6D70696C65206F6E4D
:107D60006C79C1D90895CADDA6D9B73E0895D5CF9B
:107D7000FE7C815B80D9427D5EDBC5C97CD9427DBA
:107D80005ADBCBD9EADB97D9C83E51DE03206F6BB3
:107D900034CEBCDCF1DACCDF0A20756E6465726625
:107DA0006C6F77000895727D044556414C00E0DE0B
:107DB000CADA84DA80D9E03E3EDBEEDCEADFF7CFD8
:107DC000BCDADCCFA87D045155495400A0EFADBF0B
:107DD000B7E0BEBF50D9000728DB95D9CBDF92DFD3
:107DE000E6DFFDCFC67D0127C3DE3FDF64D9F93E64
:107DF000089593CFE67D0444554D50003CD90700CB
:107E00007EDAFBDDA0DA37D9050021DECADD33D901
:107E10000F0075DA97DC2FD9030019DE39D90A3F34
:107E2000C0DD91DA28D9100087DB25D91000CEDD1E
:107E30002FD9013F82CAF67D054944554D501BD9C3
:107E400007005DDADADD7FDA16D9050000DEA9DD8C
:107E500012D90F0054DA83DC0ED90300F8DD18D9EB
:107E60002B3F9FDD70DA07D9100066DB04D91000C4
:107E7000B9DD0ED9223F61CA387E022E530046DC9E
:107E80003EDA03C02EDA4CDCF5DD02D9423FCFDD0D
:107E900003203C73089533DADADA3FD954DA0BD988
:107EA0005B3F51DA8FDE1DDA7FDA05D95B3F02973F
:107EB0003BD90BD94E3F09DA40CA51DCDCD81F0050
:107EC00063DA90CD7A7E05574F52445396DDBFDA80
:107ED00024D9EADAF0D8733F36DA63DDEEDF0297B1
:107EE00023D9F3D8693F089588DDA1DD19496E745F
:107EF00065726163746976652041726475696E6F3D
:107F00002076322E323079CDC67E04434F4C440069
:107F1000A5D8B1D8000117DA35D0ADD81E01FDD8EB
:107F200070D988D9A8D81E01F8D86BD983D9D3DAEB
:107F30005ADA32DC4BCF0A7F054552415345FC01EA
:107F40008991999143E02AD041E128C0387F0557B3
:107F500052495445FC0189919991DC01899199918B
:107F600060E80D901D9041E019D032966250C9F73B
:107F7000E058F04045E012D041E110C04E7F04527D
:107F800045414400DC0189919991FC0189919991C5
:107F900060E805900D926150E1F7089517B710FD64
:107FA000FDCF47BFE8950895FFFFFFFFFFFFFFFFED
:107FB000FFFFFFFFFFFFFFFFFFFFFFFFFFFFFFFFD1
:107FC000FFFFFFFFFFFFFFFFFFFFFFFFFFFFFFFFC1
:107FD000FFFFFFFFFFFFFFFFFFFFFFFFFFFFFFFFB1
:107FE000FFFFFFFFFFFFFFFFFFFFFFFFFFFFFFFFA1
:107FF000FFFFFFFFFFFFFFFFFFFFFFFFFFFFFFFF91
:00000001FF
